{
  "transactions": [
    {
      "hash": "0x8c66571d1ffcf7194ad21ece6add1e1748bc278dad8f3ad68f12cdeae307354d",
      "transactionType": "CALL",
      "contractName": null,
      "contractAddress": "0xa4b67922e19f5c3b7e04f36a13e7ecf87fa9b374",
      "function": "mint(address,uint256)",
      "arguments": [
        "0xD117738595dfAFe4c2f96bcF63Ed381788E08d39",
        "10000000000"
      ],
      "transaction": {
        "from": "0xd117738595dfafe4c2f96bcf63ed381788e08d39",
        "to": "0xa4b67922e19f5c3b7e04f36a13e7ecf87fa9b374",
        "gas": "0xb6ea",
        "value": "0x0",
        "input": "0x40c10f19000000000000000000000000d117738595dfafe4c2f96bcf63ed381788e08d3900000000000000000000000000000000000000000000000000000002540be400",
        "nonce": "0x28",
        "chainId": "0x3e7"
      },
      "additionalContracts": [],
      "isFixedGasLimit": false
    },
    {
      "hash": "0xddd15da6c6ca2a0fe606f78457d060ee95e6c463d8cadb66982b594b374253a2",
      "transactionType": "CALL",
      "contractName": null,
      "contractAddress": "0xa4b67922e19f5c3b7e04f36a13e7ecf87fa9b374",
      "function": "approve(address,uint256)",
      "arguments": [
        "0xd2c159Ba0a32F96F2a0d60D569D47b5657582176",
        "5000000000"
      ],
      "transaction": {
        "from": "0xd117738595dfafe4c2f96bcf63ed381788e08d39",
        "to": "0xa4b67922e19f5c3b7e04f36a13e7ecf87fa9b374",
        "gas": "0xf7d3",
        "value": "0x0",
        "input": "0x095ea7b3000000000000000000000000d2c159ba0a32f96f2a0d60d569d47b5657582176000000000000000000000000000000000000000000000000000000012a05f200",
        "nonce": "0x29",
        "chainId": "0x3e7"
      },
      "additionalContracts": [],
      "isFixedGasLimit": false
    },
    {
      "hash": "0xc97ca95586af834322335f373e79fcfb13d7af57037abab441535a93f47a43d4",
      "transactionType": "CALL",
      "contractName": null,
      "contractAddress": "0xd2c159ba0a32f96f2a0d60d569d47b5657582176",
      "function": "deposit(uint256,address)",
      "arguments": [
        "5000000000",
        "0xD117738595dfAFe4c2f96bcF63Ed381788E08d39"
      ],
      "transaction": {
        "from": "0xd117738595dfafe4c2f96bcf63ed381788e08d39",
        "to": "0xd2c159ba0a32f96f2a0d60d569d47b5657582176",
        "gas": "0x2e890",
        "value": "0x0",
        "input": "0x6e553f65000000000000000000000000000000000000000000000000000000012a05f200000000000000000000000000d117738595dfafe4c2f96bcf63ed381788e08d39",
        "nonce": "0x2a",
        "chainId": "0x3e7"
      },
      "additionalContracts": [],
      "isFixedGasLimit": false
    },
    {
      "hash": "0x612ac4ef7a89b8bf841f08d0a9da8e9040b400473a60ecf04b4116c7f85be685",
      "transactionType": "CALL",
      "contractName": null,
      "contractAddress": "0xd2c159ba0a32f96f2a0d60d569d47b5657582176",
      "function": "rebalance()",
      "arguments": [],
      "transaction": {
        "from": "0xd117738595dfafe4c2f96bcf63ed381788e08d39",
        "to": "0xd2c159ba0a32f96f2a0d60d569d47b5657582176",
        "gas": "0x32942",
        "value": "0x0",
        "input": "0x7d7c2a1c",
        "nonce": "0x2b",
        "chainId": "0x3e7"
      },
      "additionalContracts": [],
      "isFixedGasLimit": false
    },
    {
      "hash": "0x218612ecae1c2f31397ba2da5516398cf4e4366dd83fb12094d5e1e154d72d2d",
      "transactionType": "CALL",
      "contractName": null,
      "contractAddress": "0xd2c159ba0a32f96f2a0d60d569d47b5657582176",
      "function": "withdraw(uint256,address,address)",
      "arguments": [
        "2000000000",
        "0xD117738595dfAFe4c2f96bcF63Ed381788E08d39",
        "0xD117738595dfAFe4c2f96bcF63Ed381788E08d39"
      ],
      "transaction": {
        "from": "0xd117738595dfafe4c2f96bcf63ed381788e08d39",
        "to": "0xd2c159ba0a32f96f2a0d60d569d47b5657582176",
        "gas": "0x19a21",
        "value": "0x0",
        "input": "0xb460af940000000000000000000000000000000000000000000000000000000077359400000000000000000000000000d117738595dfafe4c2f96bcf63ed381788e08d39000000000000000000000000d117738595dfafe4c2f96bcf63ed381788e08d39",
        "nonce": "0x2c",
        "chainId": "0x3e7"
      },
      "additionalContracts": [],
      "isFixedGasLimit": false
    },
    {
      "hash": "0x67745c856aa9556aca77289f4375667c690239e2f16f98bcd32175465343c6da",
      "transactionType": "CALL",
      "contractName": null,
      "contractAddress": "0xd2c159ba0a32f96f2a0d60d569d47b5657582176",
      "function": "requestWithdrawal(uint256)",
      "arguments": [
        "2000000000"
      ],
      "transaction": {
        "from": "0xd117738595dfafe4c2f96bcf63ed381788e08d39",
        "to": "0xd2c159ba0a32f96f2a0d60d569d47b5657582176",
        "gas": "0x4d590",
        "value": "0x0",
        "input": "0x9ee679e80000000000000000000000000000000000000000000000000000000077359400",
        "nonce": "0x2d",
        "chainId": "0x3e7"
      },
      "additionalContracts": [],
      "isFixedGasLimit": false
    }
  ],
  "receipts": [
    {
      "status": "0x1",
      "cumulativeGasUsed": "0x96856",
      "logs": [
        {
          "address": "0xa4b67922e19f5c3b7e04f36a13e7ecf87fa9b374",
          "topics": [
            "0xddf252ad1be2c89b69c2b068fc378daa952ba7f163c4a11628f55a4df523b3ef",
            "0x0000000000000000000000000000000000000000000000000000000000000000",
            "0x000000000000000000000000d117738595dfafe4c2f96bcf63ed381788e08d39"
          ],
          "data": "0x00000000000000000000000000000000000000000000000000000002540be400",
          "blockHash": "0x8e6ff6ff24792da00ffa06b6d9f5f087d1ab5835d88dee48b2dbfe2151408eac",
          "blockNumber": "0x176e887",
          "blockTimestamp": "0x6967f66b",
          "transactionHash": "0x8c66571d1ffcf7194ad21ece6add1e1748bc278dad8f3ad68f12cdeae307354d",
          "transactionIndex": "0x2",
          "logIndex": "0x10",
          "removed": false
        }
      ],
      "logsBloom": "0x00000000000000000000000000000000000000000400000000000000000000000000000000000000000000000000000000000000000000000000000000000000000000000000000000000008000000000000000000000000002000000000000000000000020000000000000000000800000000000000000000000010000000000000000002000000000000000000000000000000000000200000000000000000000000000000000000000000000000000000000000000001000000000000000000000002000000000000000000000000000000000000000000000000000020000000000000000000000000000000000000000000000000000800000000000000",
      "type": "0x0",
      "transactionHash": "0x8c66571d1ffcf7194ad21ece6add1e1748bc278dad8f3ad68f12cdeae307354d",
      "transactionIndex": "0x2",
      "blockHash": "0x8e6ff6ff24792da00ffa06b6d9f5f087d1ab5835d88dee48b2dbfe2151408eac",
      "blockNumber": "0x176e887",
      "gasUsed": "0x846e",
      "effectiveGasPrice": "0x5f5e100",
      "from": "0xd117738595dfafe4c2f96bcf63ed381788e08d39",
      "to": "0xa4b67922e19f5c3b7e04f36a13e7ecf87fa9b374",
      "contractAddress": null
    },
    {
      "status": "0x1",
      "cumulativeGasUsed": "0xa1bc3",
      "logs": [
        {
          "address": "0xa4b67922e19f5c3b7e04f36a13e7ecf87fa9b374",
          "topics": [
            "0x8c5be1e5ebec7d5bd14f71427d1e84f3dd0314c0f7b2291e5b200ac8c7c3b925",
            "0x000000000000000000000000d117738595dfafe4c2f96bcf63ed381788e08d39",
            "0x000000000000000000000000d2c159ba0a32f96f2a0d60d569d47b5657582176"
          ],
          "data": "0x000000000000000000000000000000000000000000000000000000012a05f200",
          "blockHash": "0x8e6ff6ff24792da00ffa06b6d9f5f087d1ab5835d88dee48b2dbfe2151408eac",
          "blockNumber": "0x176e887",
          "blockTimestamp": "0x6967f66b",
          "transactionHash": "0xddd15da6c6ca2a0fe606f78457d060ee95e6c463d8cadb66982b594b374253a2",
          "transactionIndex": "0x3",
          "logIndex": "0x11",
          "removed": false
        }
      ],
      "logsBloom": "0x00000000000000000000000000000000000000004400000000000000000000000000000000000000000000000000000000000000000000000000000000200000000000000000000000000000000000000000000000000000002000020000000000000000000000000000000000000000000400000000000000000000000000000000000002000000000000000000000000000000000000200000000000000000020000000000000000000000000000000000000000000001000000000000000000000000000000000000000000000000000000000000000000000000000000000010000000000000000000000000000000000000000000000800000000000000",
      "type": "0x0",
      "transactionHash": "0xddd15da6c6ca2a0fe606f78457d060ee95e6c463d8cadb66982b594b374253a2",
      "transactionIndex": "0x3",
      "blockHash": "0x8e6ff6ff24792da00ffa06b6d9f5f087d1ab5835d88dee48b2dbfe2151408eac",
      "blockNumber": "0x176e887",
      "gasUsed": "0xb36d",
      "effectiveGasPrice": "0x5f5e100",
      "from": "0xd117738595dfafe4c2f96bcf63ed381788e08d39",
      "to": "0xa4b67922e19f5c3b7e04f36a13e7ecf87fa9b374",
      "contractAddress": null
    },
    {
      "status": "0x1",
      "cumulativeGasUsed": "0xc18de",
      "logs": [
        {
          "address": "0xa4b67922e19f5c3b7e04f36a13e7ecf87fa9b374",
          "topics": [
            "0xddf252ad1be2c89b69c2b068fc378daa952ba7f163c4a11628f55a4df523b3ef",
            "0x000000000000000000000000d117738595dfafe4c2f96bcf63ed381788e08d39",
            "0x000000000000000000000000d2c159ba0a32f96f2a0d60d569d47b5657582176"
          ],
          "data": "0x000000000000000000000000000000000000000000000000000000012a05f200",
          "blockHash": "0x8e6ff6ff24792da00ffa06b6d9f5f087d1ab5835d88dee48b2dbfe2151408eac",
          "blockNumber": "0x176e887",
          "blockTimestamp": "0x6967f66b",
          "transactionHash": "0xc97ca95586af834322335f373e79fcfb13d7af57037abab441535a93f47a43d4",
          "transactionIndex": "0x4",
          "logIndex": "0x12",
          "removed": false
        },
        {
          "address": "0xd2c159ba0a32f96f2a0d60d569d47b5657582176",
          "topics": [
            "0xddf252ad1be2c89b69c2b068fc378daa952ba7f163c4a11628f55a4df523b3ef",
            "0x0000000000000000000000000000000000000000000000000000000000000000",
            "0x000000000000000000000000d117738595dfafe4c2f96bcf63ed381788e08d39"
          ],
          "data": "0x000000000000000000000000000000000000000000000000000000012a05f200",
          "blockHash": "0x8e6ff6ff24792da00ffa06b6d9f5f087d1ab5835d88dee48b2dbfe2151408eac",
          "blockNumber": "0x176e887",
          "blockTimestamp": "0x6967f66b",
          "transactionHash": "0xc97ca95586af834322335f373e79fcfb13d7af57037abab441535a93f47a43d4",
          "transactionIndex": "0x4",
          "logIndex": "0x13",
          "removed": false
        },
        {
          "address": "0xd2c159ba0a32f96f2a0d60d569d47b5657582176",
          "topics": [
            "0xdcbc1c05240f31ff3ad067ef1ee35ce4997762752e3a095284754544f4c709d7",
            "0x000000000000000000000000d117738595dfafe4c2f96bcf63ed381788e08d39",
            "0x000000000000000000000000d117738595dfafe4c2f96bcf63ed381788e08d39"
          ],
          "data": "0x000000000000000000000000000000000000000000000000000000012a05f200000000000000000000000000000000000000000000000000000000012a05f200",
          "blockHash": "0x8e6ff6ff24792da00ffa06b6d9f5f087d1ab5835d88dee48b2dbfe2151408eac",
          "blockNumber": "0x176e887",
          "blockTimestamp": "0x6967f66b",
          "transactionHash": "0xc97ca95586af834322335f373e79fcfb13d7af57037abab441535a93f47a43d4",
          "transactionIndex": "0x4",
          "logIndex": "0x14",
          "removed": false
        },
        {
          "address": "0xd2c159ba0a32f96f2a0d60d569d47b5657582176",
          "topics": [
            "0x04d6b2c461baca437de726678682facaa7583c6f0b6ffad093559c9dd9921f35"
          ],
          "data": "0x000000000000000000000000000000000000000000000000000000006967f66b00000000000000000000000000000000000000000000000000000000000f4240000000000000000000000000000000000000000000000000000000012a05f200000000000000000000000000000000000000000000000000000000012a05f200",
          "blockHash": "0x8e6ff6ff24792da00ffa06b6d9f5f087d1ab5835d88dee48b2dbfe2151408eac",
          "blockNumber": "0x176e887",
          "blockTimestamp": "0x6967f66b",
          "transactionHash": "0xc97ca95586af834322335f373e79fcfb13d7af57037abab441535a93f47a43d4",
          "transactionIndex": "0x4",
          "logIndex": "0x15",
          "removed": false
        }
      ],
      "logsBloom": "0x00000000000000000000000000000000000000004400000000000000000000000000000000000000000000000000000000000000001000000000000000000000000000400000000000000008000000000000000000000000002000020000000000000000020000000000000000000800400400000004000000000010020000000000000002000000000000000000000000000000000000200000000000000001000000000000000000000000000000000000000000000001000000000000000000000002000000000000000000000000000000002008000000000000000120000000000000000000000000000000000000000000000000000800000000000000",
      "type": "0x0",
      "transactionHash": "0xc97ca95586af834322335f373e79fcfb13d7af57037abab441535a93f47a43d4",
      "transactionIndex": "0x4",
      "blockHash": "0x8e6ff6ff24792da00ffa06b6d9f5f087d1ab5835d88dee48b2dbfe2151408eac",
      "blockNumber": "0x176e887",
      "gasUsed": "0x1fd1b",
      "effectiveGasPrice": "0x5f5e100",
      "from": "0xd117738595dfafe4c2f96bcf63ed381788e08d39",
      "to": "0xd2c159ba0a32f96f2a0d60d569d47b5657582176",
      "contractAddress": null
    },
    {
      "status": "0x1",
      "cumulativeGasUsed": "0xe62c2",
      "logs": [
        {
          "address": "0xa4b67922e19f5c3b7e04f36a13e7ecf87fa9b374",
          "topics": [
            "0x8c5be1e5ebec7d5bd14f71427d1e84f3dd0314c0f7b2291e5b200ac8c7c3b925",
            "0x000000000000000000000000d2c159ba0a32f96f2a0d60d569d47b5657582176",
            "0x00000000000000000000000031d3e58a53dcbd61b3756457b10f4c99b49d40c0"
          ],
          "data": "0x000000000000000000000000000000000000000000000000000000009502f900",
          "blockHash": "0x8e6ff6ff24792da00ffa06b6d9f5f087d1ab5835d88dee48b2dbfe2151408eac",
          "blockNumber": "0x176e887",
          "blockTimestamp": "0x6967f66b",
          "transactionHash": "0x612ac4ef7a89b8bf841f08d0a9da8e9040b400473a60ecf04b4116c7f85be685",
          "transactionIndex": "0x5",
          "logIndex": "0x16",
          "removed": false
        },
        {
          "address": "0xa4b67922e19f5c3b7e04f36a13e7ecf87fa9b374",
          "topics": [
            "0xddf252ad1be2c89b69c2b068fc378daa952ba7f163c4a11628f55a4df523b3ef",
            "0x000000000000000000000000d2c159ba0a32f96f2a0d60d569d47b5657582176",
            "0x00000000000000000000000031d3e58a53dcbd61b3756457b10f4c99b49d40c0"
          ],
          "data": "0x000000000000000000000000000000000000000000000000000000009502f900",
          "blockHash": "0x8e6ff6ff24792da00ffa06b6d9f5f087d1ab5835d88dee48b2dbfe2151408eac",
          "blockNumber": "0x176e887",
          "blockTimestamp": "0x6967f66b",
          "transactionHash": "0x612ac4ef7a89b8bf841f08d0a9da8e9040b400473a60ecf04b4116c7f85be685",
          "transactionIndex": "0x5",
          "logIndex": "0x17",
          "removed": false
        },
        {
          "address": "0xa4b67922e19f5c3b7e04f36a13e7ecf87fa9b374",
          "topics": [
            "0x8c5be1e5ebec7d5bd14f71427d1e84f3dd0314c0f7b2291e5b200ac8c7c3b925",
            "0x00000000000000000000000031d3e58a53dcbd61b3756457b10f4c99b49d40c0",
            "0x0000000000000000000000009a5d351d16c10cedd984085c568018982275a7d8"
          ],
          "data": "0x000000000000000000000000000000000000000000000000000000009502f900",
          "blockHash": "0x8e6ff6ff24792da00ffa06b6d9f5f087d1ab5835d88dee48b2dbfe2151408eac",
          "blockNumber": "0x176e887",
          "blockTimestamp": "0x6967f66b",
          "transactionHash": "0x612ac4ef7a89b8bf841f08d0a9da8e9040b400473a60ecf04b4116c7f85be685",
          "transactionIndex": "0x5",
          "logIndex": "0x18",
          "removed": false
        },
        {
          "address": "0x9a5d351d16c10cedd984085c568018982275a7d8",
          "topics": [
            "0x0c4e22d9ea81fa435582450803b7cb4b0f1e28f089619973ca61ff6564cd6762"
          ],
          "data": "0x000000000000000000000000000000000000000000000000000000000000000200000000000000000000000000000000000000000000000000000000000000400000000000000000000000000000000000000000000000000000000000000040000000000000000000000000000000000000000000000000000000009502f90000000000000000000000000031d3e58a53dcbd61b3756457b10f4c99b49d40c0",
          "blockHash": "0x8e6ff6ff24792da00ffa06b6d9f5f087d1ab5835d88dee48b2dbfe2151408eac",
          "blockNumber": "0x176e887",
          "blockTimestamp": "0x6967f66b",
          "transactionHash": "0x612ac4ef7a89b8bf841f08d0a9da8e9040b400473a60ecf04b4116c7f85be685",
          "transactionIndex": "0x5",
          "logIndex": "0x19",
          "removed": false
        },
        {
          "address": "0xd2c159ba0a32f96f2a0d60d569d47b5657582176",
          "topics": [
            "0x27c135cf4d6352ddb39ac430d5c14781ff193a766c0c87bc64aa96b8450ac8b0"
          ],
          "data": "0x",
          "blockHash": "0x8e6ff6ff24792da00ffa06b6d9f5f087d1ab5835d88dee48b2dbfe2151408eac",
          "blockNumber": "0x176e887",
          "blockTimestamp": "0x6967f66b",
          "transactionHash": "0x612ac4ef7a89b8bf841f08d0a9da8e9040b400473a60ecf04b4116c7f85be685",
          "transactionIndex": "0x5",
          "logIndex": "0x1a",
          "removed": false
        },
        {
          "address": "0xd2c159ba0a32f96f2a0d60d569d47b5657582176",
          "topics": [
            "0x04d6b2c461baca437de726678682facaa7583c6f0b6ffad093559c9dd9921f35"
          ],
          "data": "0x000000000000000000000000000000000000000000000000000000006967f66b00000000000000000000000000000000000000000000000000000000000f4240000000000000000000000000000000000000000000000000000000012a05f200000000000000000000000000000000000000000000000000000000012a05f200",
          "blockHash": "0x8e6ff6ff24792da00ffa06b6d9f5f087d1ab5835d88dee48b2dbfe2151408eac",
          "blockNumber": "0x176e887",
          "blockTimestamp": "0x6967f66b",
          "transactionHash": "0x612ac4ef7a89b8bf841f08d0a9da8e9040b400473a60ecf04b4116c7f85be685",
          "transactionIndex": "0x5",
          "logIndex": "0x1b",
          "removed": false
        }
      ],
      "logsBloom": "0x00000000000000000000000000000000000000004400000000000020000020000000000000000000000000000000000100000000001000000000000080200000000000000200000000000008000000002000000000000000000000020000000000000080000000000000000200002000400400000000000000000010020000000000000002000000000000000000000001000000000000000000000800000001020000080000000000000000000000000000000000000000000000000000000000000002040000000000000000000000000000002000000000000000000100000010000000000000002000000000000000000000000000000800000000000000",
      "type": "0x0",
      "transactionHash": "0x612ac4ef7a89b8bf841f08d0a9da8e9040b400473a60ecf04b4116c7f85be685",
      "transactionIndex": "0x5",
      "blockHash": "0x8e6ff6ff24792da00ffa06b6d9f5f087d1ab5835d88dee48b2dbfe2151408eac",
      "blockNumber": "0x176e887",
      "gasUsed": "0x249e4",
      "effectiveGasPrice": "0x5f5e100",
      "from": "0xd117738595dfafe4c2f96bcf63ed381788e08d39",
      "to": "0xd2c159ba0a32f96f2a0d60d569d47b5657582176",
      "contractAddress": null
    },
    {
      "status": "0x1",
      "cumulativeGasUsed": "0xf8bb0",
      "logs": [
        {
          "address": "0xd2c159ba0a32f96f2a0d60d569d47b5657582176",
          "topics": [
            "0xddf252ad1be2c89b69c2b068fc378daa952ba7f163c4a11628f55a4df523b3ef",
            "0x000000000000000000000000d117738595dfafe4c2f96bcf63ed381788e08d39",
            "0x0000000000000000000000000000000000000000000000000000000000000000"
          ],
          "data": "0x0000000000000000000000000000000000000000000000000000000077359400",
          "blockHash": "0x8e6ff6ff24792da00ffa06b6d9f5f087d1ab5835d88dee48b2dbfe2151408eac",
          "blockNumber": "0x176e887",
          "blockTimestamp": "0x6967f66b",
          "transactionHash": "0x218612ecae1c2f31397ba2da5516398cf4e4366dd83fb12094d5e1e154d72d2d",
          "transactionIndex": "0x6",
          "logIndex": "0x1c",
          "removed": false
        },
        {
          "address": "0xa4b67922e19f5c3b7e04f36a13e7ecf87fa9b374",
          "topics": [
            "0xddf252ad1be2c89b69c2b068fc378daa952ba7f163c4a11628f55a4df523b3ef",
            "0x000000000000000000000000d2c159ba0a32f96f2a0d60d569d47b5657582176",
            "0x000000000000000000000000d117738595dfafe4c2f96bcf63ed381788e08d39"
          ],
          "data": "0x0000000000000000000000000000000000000000000000000000000077359400",
          "blockHash": "0x8e6ff6ff24792da00ffa06b6d9f5f087d1ab5835d88dee48b2dbfe2151408eac",
          "blockNumber": "0x176e887",
          "blockTimestamp": "0x6967f66b",
          "transactionHash": "0x218612ecae1c2f31397ba2da5516398cf4e4366dd83fb12094d5e1e154d72d2d",
          "transactionIndex": "0x6",
          "logIndex": "0x1d",
          "removed": false
        },
        {
          "address": "0xd2c159ba0a32f96f2a0d60d569d47b5657582176",
          "topics": [
            "0xfbde797d201c681b91056529119e0b02407c7bb96a4a2c75c01fc9667232c8db",
            "0x000000000000000000000000d117738595dfafe4c2f96bcf63ed381788e08d39",
            "0x000000000000000000000000d117738595dfafe4c2f96bcf63ed381788e08d39",
            "0x000000000000000000000000d117738595dfafe4c2f96bcf63ed381788e08d39"
          ],
          "data": "0x00000000000000000000000000000000000000000000000000000000773594000000000000000000000000000000000000000000000000000000000077359400",
          "blockHash": "0x8e6ff6ff24792da00ffa06b6d9f5f087d1ab5835d88dee48b2dbfe2151408eac",
          "blockNumber": "0x176e887",
          "blockTimestamp": "0x6967f66b",
          "transactionHash": "0x218612ecae1c2f31397ba2da5516398cf4e4366dd83fb12094d5e1e154d72d2d",
          "transactionIndex": "0x6",
          "logIndex": "0x1e",
          "removed": false
        }
      ],
      "logsBloom": "0x00000000000000400000000000000000000000004400000000000000000000000000000000000000000000000000000000000000001000000000000000000000000000000000000000000008000000000000000000000000002000020000000000000000020000000000000000000800000400000000000000000010000000000000000002000000000000000000000000000000000000200000000000000001000000000000000000000000000000020000000000000001000000000000000000000002000000000000000000000000000000000000000000000000000120000000000000000000000000000000000000000000000000000800000000000000",
      "type": "0x0",
      "transactionHash": "0x218612ecae1c2f31397ba2da5516398cf4e4366dd83fb12094d5e1e154d72d2d",
      "transactionIndex": "0x6",
      "blockHash": "0x8e6ff6ff24792da00ffa06b6d9f5f087d1ab5835d88dee48b2dbfe2151408eac",
      "blockNumber": "0x176e887",
      "gasUsed": "0x128ee",
      "effectiveGasPrice": "0x5f5e100",
      "from": "0xd117738595dfafe4c2f96bcf63ed381788e08d39",
      "to": "0xd2c159ba0a32f96f2a0d60d569d47b5657582176",
      "contractAddress": null
    },
    {
      "status": "0x1",
      "cumulativeGasUsed": "0x12d9e3",
      "logs": [
        {
          "address": "0xd2c159ba0a32f96f2a0d60d569d47b5657582176",
          "topics": [
            "0xddf252ad1be2c89b69c2b068fc378daa952ba7f163c4a11628f55a4df523b3ef",
            "0x000000000000000000000000d117738595dfafe4c2f96bcf63ed381788e08d39",
            "0x0000000000000000000000000000000000000000000000000000000000000000"
          ],
          "data": "0x0000000000000000000000000000000000000000000000000000000077359400",
          "blockHash": "0x8e6ff6ff24792da00ffa06b6d9f5f087d1ab5835d88dee48b2dbfe2151408eac",
          "blockNumber": "0x176e887",
          "blockTimestamp": "0x6967f66b",
          "transactionHash": "0x67745c856aa9556aca77289f4375667c690239e2f16f98bcd32175465343c6da",
          "transactionIndex": "0x7",
          "logIndex": "0x1f",
          "removed": false
        },
        {
          "address": "0xd2c159ba0a32f96f2a0d60d569d47b5657582176",
          "topics": [
            "0x24b91f4f47caf44230a57777a9be744924e82bf666f2d5702faf97df35e60f9f",
            "0x000000000000000000000000d117738595dfafe4c2f96bcf63ed381788e08d39"
          ],
          "data": "0x00000000000000000000000000000000000000000000000000000000773594000000000000000000000000000000000000000000000000000000000077359400",
          "blockHash": "0x8e6ff6ff24792da00ffa06b6d9f5f087d1ab5835d88dee48b2dbfe2151408eac",
          "blockNumber": "0x176e887",
          "blockTimestamp": "0x6967f66b",
          "transactionHash": "0x67745c856aa9556aca77289f4375667c690239e2f16f98bcd32175465343c6da",
          "transactionIndex": "0x7",
          "logIndex": "0x20",
          "removed": false
        }
      ],
      "logsBloom": "0x00000000000000040800000000000000000000000000000000000000000000000000000000000000000000000000000000000000001000000000000000000000000000000000000000000008000000000000000000400000002000000000000000000000020000000000000000000800000000000000000000000010000000000000000000000000000000000000000000000000000000200000000000000001000000000000000000000000000000000000000000000001000000000000000000000002000000000000000000000000000000000000000000000000000120000000000000000000000000000000000000000000000000000000000000000000",
      "type": "0x0",
      "transactionHash": "0x67745c856aa9556aca77289f4375667c690239e2f16f98bcd32175465343c6da",
      "transactionIndex": "0x7",
      "blockHash": "0x8e6ff6ff24792da00ffa06b6d9f5f087d1ab5835d88dee48b2dbfe2151408eac",
      "blockNumber": "0x176e887",
      "gasUsed": "0x34e33",
      "effectiveGasPrice": "0x5f5e100",
      "from": "0xd117738595dfafe4c2f96bcf63ed381788e08d39",
      "to": "0xd2c159ba0a32f96f2a0d60d569d47b5657582176",
      "contractAddress": null
    }
  ],
  "libraries": [],
  "pending": [],
  "returns": {},
  "timestamp": 1768420972680,
  "chain": 999,
  "commit": null
}