{
  "transactions": [
    {
      "hash": "0xfc831a8da49aac6495984f821a10ac3ccb5b096c28e116d82f174c7f06464084",
      "transactionType": "CREATE",
      "contractName": "MockStrategy",
      "contractAddress": "0xe5b3f0f17a2a79cbd521d5e47cd6736a704f5e5c",
      "function": null,
      "arguments": [
        "0xA4b67922E19f5c3b7e04f36A13E7eCF87FA9B374"
      ],
      "transaction": {
        "from": "0xd117738595dfafe4c2f96bcf63ed381788e08d39",
        "gas": "0x90c45",
        "value": "0x0",
        "input": "0x60803460cd57601f61074738819003918201601f19168301916001600160401b0383118484101760d15780849260209460405283398101031260cd57516001600160a01b0381169081900360cd57331560ba575f8054336001600160a01b0319821681178355604051939290916001600160a01b0316907f8be0079c531659141344cd1fd0a4f28419497f9722a3daafe3b4186f6b6457e09080a3600180546001600160a01b03191691909117905561066190816100e68239f35b631e4fbdf760e01b5f525f60045260245ffd5b5f80fd5b634e487b7160e01b5f52604160045260245ffdfe6080806040526004361015610012575f80fd5b5f3560e01c90816301e1d1141461054c575080632e1a7d4d146103d657806338d52e0f146103ae5780636ae6b459146103845780636d9aafe814610347578063715018a61461030357806384cfb680146102b05780638da5cb5b1461028957806392e51ba614610219578063ad467980146101fc578063b6b55f25146101165763f2fde38b146100a0575f80fd5b34610112576020366003190112610112576100b9610566565b6100c16105e5565b6001600160a01b031680156100ff575f80546001600160a01b03198116831782556001600160a01b0316905f51602061060c5f395f51905f529080a3005b631e4fbdf760e01b5f525f60045260245ffd5b5f80fd5b346101125760203660031901126101125760043580156101c2576001546040516323b872dd60e01b8152336004820152306024820152604481018390529190602090839060649082905f906001600160a01b03165af19182156101b7576101859261018a575b506002546105d8565b600255005b6101ab9060203d6020116101b0575b6101a38183610589565b8101906105c0565b61017c565b503d610199565b6040513d5f823e3d90fd5b60405162461bcd60e51b81526020600482015260126024820152710416d6f756e74206d757374206265203e20360741b6044820152606490fd5b34610112575f366003190112610112576020600354604051908152f35b34610112576020366003190112610112576004356102356105e5565b5f81131561024b57610185906002546105d8565b005b600160ff1b811461027557600254905f038181111561026c5750505f600255005b6101859161057c565b634e487b7160e01b5f52601160045260245ffd5b34610112575f366003190112610112575f546040516001600160a01b039091168152602090f35b34610112576040366003190112610112576102c9610566565b60243590811515809203610112576102df6105e5565b60018060a01b03165f52600460205260405f209060ff801983541691161790555f80f35b34610112575f3660031901126101125761031b6105e5565b5f80546001600160a01b0319811682556001600160a01b03165f51602061060c5f395f51905f528280a3005b34610112576020366003190112610112576001600160a01b03610368610566565b165f526004602052602060ff60405f2054166040519015158152f35b346101125760203660031901126101125761039d6105e5565b6103a9600435426105d8565b600355005b34610112575f366003190112610112576001546040516001600160a01b039091168152602090f35b346101125760203660031901126101125760043560018060a01b035f541633148015610536575b156104f85760035442106104c05760025480821161047c57816104235f9360209361057c565b60025560015460405163a9059cbb60e01b815233600482015260248101929092529092839160449183916001600160a01b03165af180156101b75761046457005b6102499060203d6020116101b0576101a38183610589565b60405162461bcd60e51b815260206004820152601c60248201527b53747261746567793a20496e73756666696369656e742066756e647360201b6044820152606490fd5b60405162461bcd60e51b815260206004820152601060248201526f14dd1c985d1959de4e88131bd8dad95960821b6044820152606490fd5b60405162461bcd60e51b815260206004820152601660248201527514dd1c985d1959de4e88155b985d5d1a1bdc9a5e995960521b6044820152606490fd5b50335f52600460205260ff60405f2054166103fd565b34610112575f366003190112610112576020906002548152f35b600435906001600160a01b038216820361011257565b9190820391821161027557565b601f909101601f19168101906001600160401b038211908210176105ac57604052565b634e487b7160e01b5f52604160045260245ffd5b90816020910312610112575180151581036101125790565b9190820180921161027557565b5f546001600160a01b031633036105f857565b63118cdaa760e01b5f523360045260245ffdfe8be0079c531659141344cd1fd0a4f28419497f9722a3daafe3b4186f6b6457e0a26469706673582212206494a5f92acc5cc9958fb5c8bbe6f03e2f5ed0c38fb8ac6820e0748ab66aa70964736f6c634300081e0033000000000000000000000000a4b67922e19f5c3b7e04f36a13e7ecf87fa9b374",
        "nonce": "0x2f",
        "chainId": "0x3e7"
      },
      "additionalContracts": [],
      "isFixedGasLimit": false
    },
    {
      "hash": "0x5939a7c388db4562c413b7ef26acbb4adabb0ad75ab5b966452c2ac10a0b9ce2",
      "transactionType": "CALL",
      "contractName": null,
      "contractAddress": "0xd2c159ba0a32f96f2a0d60d569d47b5657582176",
      "function": "addStrategy(address)",
      "arguments": [
        "0xe5B3F0F17A2a79CBd521D5E47cD6736a704F5E5C"
      ],
      "transaction": {
        "from": "0xd117738595dfafe4c2f96bcf63ed381788e08d39",
        "to": "0xd2c159ba0a32f96f2a0d60d569d47b5657582176",
        "gas": "0x1a136",
        "value": "0x0",
        "input": "0x223e5479000000000000000000000000e5b3f0f17a2a79cbd521d5e47cd6736a704f5e5c",
        "nonce": "0x30",
        "chainId": "0x3e7"
      },
      "additionalContracts": [],
      "isFixedGasLimit": false
    },
    {
      "hash": "0x90c3bfb7135b18f68f35c7dca95e480af8ec477a9c16153eef872df290b0ef77",
      "transactionType": "CALL",
      "contractName": null,
      "contractAddress": "0xd2c159ba0a32f96f2a0d60d569d47b5657582176",
      "function": "setAllocation(address,uint256)",
      "arguments": [
        "0xe5B3F0F17A2a79CBd521D5E47cD6736a704F5E5C",
        "3000"
      ],
      "transaction": {
        "from": "0xd117738595dfafe4c2f96bcf63ed381788e08d39",
        "to": "0xd2c159ba0a32f96f2a0d60d569d47b5657582176",
        "gas": "0x11b22",
        "value": "0x0",
        "input": "0x9076c166000000000000000000000000e5b3f0f17a2a79cbd521d5e47cd6736a704f5e5c0000000000000000000000000000000000000000000000000000000000000bb8",
        "nonce": "0x31",
        "chainId": "0x3e7"
      },
      "additionalContracts": [],
      "isFixedGasLimit": false
    },
    {
      "hash": "0xc841170cdf7532909b3fa8dba12407b3555fb233fea706c567b5bf1770ed74f9",
      "transactionType": "CALL",
      "contractName": "MockStrategy",
      "contractAddress": "0xe5b3f0f17a2a79cbd521d5e47cd6736a704f5e5c",
      "function": "setApproved(address,bool)",
      "arguments": [
        "0xd2c159Ba0a32F96F2a0d60D569D47b5657582176",
        "true"
      ],
      "transaction": {
        "from": "0xd117738595dfafe4c2f96bcf63ed381788e08d39",
        "to": "0xe5b3f0f17a2a79cbd521d5e47cd6736a704f5e5c",
        "gas": "0x108a2",
        "value": "0x0",
        "input": "0x84cfb680000000000000000000000000d2c159ba0a32f96f2a0d60d569d47b56575821760000000000000000000000000000000000000000000000000000000000000001",
        "nonce": "0x32",
        "chainId": "0x3e7"
      },
      "additionalContracts": [],
      "isFixedGasLimit": false
    }
  ],
  "receipts": [
    {
      "status": "0x1",
      "cumulativeGasUsed": "0x6f5bf",
      "logs": [
        {
          "address": "0xe5b3f0f17a2a79cbd521d5e47cd6736a704f5e5c",
          "topics": [
            "0x8be0079c531659141344cd1fd0a4f28419497f9722a3daafe3b4186f6b6457e0",
            "0x0000000000000000000000000000000000000000000000000000000000000000",
            "0x000000000000000000000000d117738595dfafe4c2f96bcf63ed381788e08d39"
          ],
          "data": "0x",
          "blockHash": "0x07951c64ee269c4925cd99b53ff13999af79e0c824eb7a62fdce88d2cef615e9",
          "blockNumber": "0x1770eb4",
          "blockTimestamp": "0x69681bf7",
          "transactionHash": "0xfc831a8da49aac6495984f821a10ac3ccb5b096c28e116d82f174c7f06464084",
          "transactionIndex": "0x0",
          "logIndex": "0x0",
          "removed": false
        }
      ],
      "logsBloom": "0x00000000000000000000000000000000000000000000000000800000000000000000000000000000000000000000000000000000080000000000000000000000000000000000000000000000000000000001000000000000002000000000000000000000020000000000000000000800000000000000000000000000000000400000000000000000000000000000000000000000000000200000000000000000000000000000000000000000000000000000200000000001000000000000000000000000000000000000000000000000000080000000000000000000000020000000000000000000000000000000000000000000000000000000000000000000",
      "type": "0x0",
      "transactionHash": "0xfc831a8da49aac6495984f821a10ac3ccb5b096c28e116d82f174c7f06464084",
      "transactionIndex": "0x0",
      "blockHash": "0x07951c64ee269c4925cd99b53ff13999af79e0c824eb7a62fdce88d2cef615e9",
      "blockNumber": "0x1770eb4",
      "gasUsed": "0x6f5bf",
      "effectiveGasPrice": "0x79a0d96",
      "from": "0xd117738595dfafe4c2f96bcf63ed381788e08d39",
      "to": null,
      "contractAddress": "0xe5b3f0f17a2a79cbd521d5e47cd6736a704f5e5c"
    },
    {
      "status": "0x1",
      "cumulativeGasUsed": "0x823ce",
      "logs": [
        {
          "address": "0xd2c159ba0a32f96f2a0d60d569d47b5657582176",
          "topics": [
            "0x3f008fd510eae7a9e7bee13513d7b83bef8003d488b5a3d0b0da4de71d6846f1",
            "0x000000000000000000000000e5b3f0f17a2a79cbd521d5e47cd6736a704f5e5c"
          ],
          "data": "0x",
          "blockHash": "0x07951c64ee269c4925cd99b53ff13999af79e0c824eb7a62fdce88d2cef615e9",
          "blockNumber": "0x1770eb4",
          "blockTimestamp": "0x69681bf7",
          "transactionHash": "0x5939a7c388db4562c413b7ef26acbb4adabb0ad75ab5b966452c2ac10a0b9ce2",
          "transactionIndex": "0x1",
          "logIndex": "0x1",
          "removed": false
        }
      ],
      "logsBloom": "0x00000000000000000000000000000000000000000000000000000000000000000000000000000000000000000000000000000000001000000000000000000000000000000000000000000000000000000000000000000000000000000000000000008000000000000000000400000000000000000000000000000000000000000000004000000000000002000000000000000000000000000000000000000001000000000000000010000000000000000000000000000000000000000000000000000000000000000000000000000000000000000000000000000800000100000000000000000000000000000000000000000000000000000000000000000000",
      "type": "0x0",
      "transactionHash": "0x5939a7c388db4562c413b7ef26acbb4adabb0ad75ab5b966452c2ac10a0b9ce2",
      "transactionIndex": "0x1",
      "blockHash": "0x07951c64ee269c4925cd99b53ff13999af79e0c824eb7a62fdce88d2cef615e9",
      "blockNumber": "0x1770eb4",
      "gasUsed": "0x12e0f",
      "effectiveGasPrice": "0x79a0d96",
      "from": "0xd117738595dfafe4c2f96bcf63ed381788e08d39",
      "to": "0xd2c159ba0a32f96f2a0d60d569d47b5657582176",
      "contractAddress": null
    },
    {
      "status": "0x1",
      "cumulativeGasUsed": "0x8f0cb",
      "logs": [
        {
          "address": "0xd2c159ba0a32f96f2a0d60d569d47b5657582176",
          "topics": [
            "0x183f2ce0b749ed46549cb16586af0c501abab8d242cc4b2076aec30d2dd9c4bc",
            "0x000000000000000000000000e5b3f0f17a2a79cbd521d5e47cd6736a704f5e5c"
          ],
          "data": "0x0000000000000000000000000000000000000000000000000000000000000bb8",
          "blockHash": "0x07951c64ee269c4925cd99b53ff13999af79e0c824eb7a62fdce88d2cef615e9",
          "blockNumber": "0x1770eb4",
          "blockTimestamp": "0x69681bf7",
          "transactionHash": "0x90c3bfb7135b18f68f35c7dca95e480af8ec477a9c16153eef872df290b0ef77",
          "transactionIndex": "0x2",
          "logIndex": "0x2",
          "removed": false
        }
      ],
      "logsBloom": "0x00000000000000000000000000000000000000000000000000000000000000000000000000000000000000000000010000000000001000000000000000000000000000000000000000000000000000000000000000000000000080000000000000008000000000000000000400000000400000000000000000000000000000000000000000000000000000000000000000000000000000000000000000000001000000000000000000000000000000000000000000000000000000000000000000000000000000000000000000000000000000000000000000000800000100000000000000000000000000000000000000000000000000000000000000000000",
      "type": "0x0",
      "transactionHash": "0x90c3bfb7135b18f68f35c7dca95e480af8ec477a9c16153eef872df290b0ef77",
      "transactionIndex": "0x2",
      "blockHash": "0x07951c64ee269c4925cd99b53ff13999af79e0c824eb7a62fdce88d2cef615e9",
      "blockNumber": "0x1770eb4",
      "gasUsed": "0xccfd",
      "effectiveGasPrice": "0x79a0d96",
      "from": "0xd117738595dfafe4c2f96bcf63ed381788e08d39",
      "to": "0xd2c159ba0a32f96f2a0d60d569d47b5657582176",
      "contractAddress": null
    },
    {
      "status": "0x1",
      "cumulativeGasUsed": "0x9a5be",
      "logs": [],
      "logsBloom": "0x00000000000000000000000000000000000000000000000000000000000000000000000000000000000000000000000000000000000000000000000000000000000000000000000000000000000000000000000000000000000000000000000000000000000000000000000000000000000000000000000000000000000000000000000000000000000000000000000000000000000000000000000000000000000000000000000000000000000000000000000000000000000000000000000000000000000000000000000000000000000000000000000000000000000000000000000000000000000000000000000000000000000000000000000000000000",
      "type": "0x0",
      "transactionHash": "0xc841170cdf7532909b3fa8dba12407b3555fb233fea706c567b5bf1770ed74f9",
      "transactionIndex": "0x3",
      "blockHash": "0x07951c64ee269c4925cd99b53ff13999af79e0c824eb7a62fdce88d2cef615e9",
      "blockNumber": "0x1770eb4",
      "gasUsed": "0xb4f3",
      "effectiveGasPrice": "0x79a0d96",
      "from": "0xd117738595dfafe4c2f96bcf63ed381788e08d39",
      "to": "0xe5b3f0f17a2a79cbd521d5e47cd6736a704f5e5c",
      "contractAddress": null
    }
  ],
  "libraries": [],
  "pending": [],
  "returns": {},
  "timestamp": 1768430584723,
  "chain": 999,
  "commit": "36b7770"
}